:100000000C9486020C94BE020C94BE020C94BE02A8
:100010000C94BE020C94BE020C94BE020C94BE0260
:100020000C94BE020C94BE020C9453270C94262808
:100030000C947D210C94BE020C94BE020C94BE0262
:100040000C94BE020C94BE020C94BE020C94BE0230
:100050000C94BE020C9435220C94BE020C94BE0289
:100060000C94BE020C94BE020C94BE020C94BE0210
:100070000C94BE020C94BE020C94BE020C94BE0200
:100080000C94BE020C94BE020C94BE020C94BE02F0
:100090000C94BE020C94BE020C94BE020C94BE02E0
:1000A0000C94BE020C94BE020C94BE02002B3B4B7F
:1000B000002A3A4A0029394900283848002737479A
:1000C00000263646002535560024455500A4948464
:1000D00000A5958500A6968600A7978700A8988812
:1000E00000A9998900AA9A7900AB8A7A0033435310
:1000F000003242520031415100304050002F3F4FFA
:10010000002E3E4E002D3D5E00AC9C8C00AD9D8DC2
:1001100000AE9E8E00AF9F8F00B0A09000B1A19165
:1001200000B2A28100B39282012B3B4B012A3A4AD2
:100130000129394901283848012737470126364621
:10014000012535560124455501A4948401A59585C2
:1001500001A6968601A7978701A8988801A9998981
:1001600001AA9A7901AB8A7A013343530132425290
:100170000131415101304050012F3F4F012E3E4E81
:10018000012D3D5E012C4D5D01AC9C8C01AD9D8D22
:1001900001AE9E8E01AF9F8F01B0A09001B1A191E1
:1001A00001B2A28101B3928200000000167C1E0001
:1001B0001F0020002100220023002400250026002B
:1001C00027002A0014001A000800150017001C0060
:1001D00018000C00120013002F004C000400160041
:1001E000070009000A000B000D000E000F0033008D
:1001F000340028001D001B00060019000500110036
:1002000010003600370038005200E500E2002252AC
:10021000E300E0002C00000000002B002152500001
:1002200051004F003A003B003C003D003E003F00C3
:1002300040004100420043004400450046000100E8
:1002400001000100010001002D022E022F023002E8
:100250003000010001000100010001000100010067
:100260002D002E002F0030000100310001000100A0
:100270000100010001000100010001000100450032
:100280004B0001000100010001000100010000001D
:100290000000390001004A004E004D00680069006E
:1002A0006A006B006C006D006E006F0070007100E2
:1002B00072004C002B000100010001000100010050
:1002C0000100010001000100010001004A004D0091
:1002D0004900AE0001000100010001000100010021
:1002E00001000100AC00AB00A800AA00A9000100B9
:1002F00001000100010001003102010001000100C4
:1003000001000100010000000000010001000100E7
:1003100001000100000101010101010101010202CE
:1003200002020202020202030303030303030304A3
:10033000040404040404050505050506060606066E
:10034000070707070708080808090909090A0A0A28
:100350000B0B0B0C0C0C0D0D0D0E0E0E0F0F0F10CA
:100360001011111112121313141415151616171754
:10037000181819191A1A1B1B1C1D1D1E1E1F2020C0
:10038000212222232424252626272829292A2B2C0A
:100390002D2D2E2F30313232333435363738393A2D
:1003A0003B3C3D3E3F404142434445464748494A25
:1003B0004C4D4E4F50515354555658595A5B5D5EF3
:1003C0005F616264656668696B6C6D6F707273758E
:1003D00077787A7B7D7E8082838587888A8C8E8FF2
:1003E00091939596989A9C9EA0A2A3A5A7A9ABAD20
:1003F000AFB1B3B5B7BABCBEC0C2C4C6C9CBCDCF0E
:10040000D1D4D6D8DBDDDFE2E4E7E9EBEEF0F3F5BB
:10041000F8FAFDFF080347004B00360000002403F4
:10042000470069007A006D006F00200045006E00F3
:10043000670069006E0065006500720069006E006B
:10044000670000000403090409023B00020100A048
:10045000FA09040000010301010009211101000152
:10046000224400070581030800010904010001037B
:10047000000000092111010001223200070582035A
:100480002000011201000200000008326501003165
:10049000300102000105010980A101850319012A2B
:1004A000B700150126B700950175108100C0050C35
:1004B0000901A101850419012AA002150126A00243
:1004C000950175108100C005010906A101050719F4
:1004D000E029E71500250195087501810295017550
:1004E0000881010507190029FF150026FF00950660
:1004F00075088100050819012905150025019505D4
:1005000075019102950175039101C00011241FBE70
:10051000CFEFDAE0DEBFCDBF04B603FE18C0809196
:10052000760590917705A0917805B091790587308F
:10053000904BA740B04B59F4109276051092770576
:100540001092780510927905E0E0F8E3099512E041
:10055000A0E0B1E0EEE8F6E502C005900D92A03A09
:10056000B107D9F725E0A0EAB2E001C01D92A63795
:10057000B207E1F70E9415120C94EF2A0C940000C8
:1005800080E0089508958330B8F46530A8F44C30C5
:1005900098F4E42FF0E09CE0699FE00DF11D112438
:1005A0009CE3899FE00DF11D1124EE0FFF1FE45520
:1005B000FE4F85919491089581E090E008950E9406
:1005C000C302089581E008950E94E202089581E047
:1005D00008950E94E20208950E94E9020895089594
:1005E0000E94EF020895A6E0B0E0E9EFF2E00C947B
:1005F0004F2A49835A839E833091A70289819A8129
:1006000031111AC03E81332399F0222389F00E94D0
:100610009508182F682F89819A810E947108698135
:100620007A81812F0E944F0F2696E3E00C946B2A6B
:100630000E948308182FF3CF0E94950869817A8160
:10064000F1CFFC01262F4081518162817381848129
:1006500095810E94F3020895CF93DF93D82FC92F7D
:1006600061E00E9421036D2F7C2F0E94E402DF9144
:10067000CF910895CF93DF93D82FC92F60E00E94C8
:1006800021036D2F7C2F0E94F002DF91CF910895FE
:1006900081E008950E9448030895CF93C82F0E94D7
:1006A00043078C2F0E944A032FEF84E39CE02150E4
:1006B00080409040E1F700C00000CF91089581E0B4
:1006C0000E944D030E945922089580E00E944D032C
:1006D0000E947D2208950F931F93CF93DF938C0187
:1006E00061E00E942103EC01B8010E94EC02882322
:1006F000E1F1B801CE010E9425208823B1F1B801B3
:10070000CE010E94DA1E882381F1B801CE010E9439
:10071000AF1E882351F1B801CE010E94541E8823D8
:1007200021F1F8018581882381F0CA35FCE7DF07D4
:1007300039F178F4C130ECE7DE07F9F0C330FCE7BB
:10074000DF07C9F0C115DC4771F0C8010E94E7025C
:100750000DC0CB35ECE7DE07B1F0CC35DC47A9F7AF
:100760000E94970CF2CF0E945F0380E0DF91CF914F
:100770001F910F9108950E94A90C0E946503F5CF67
:100780000E94A10CE2CF0E94A50CDFCF0E9459214C
:100790000E94161A0E94F50381E00E941E1B089514
:1007A0000E94F90380E00E941E1B0E945E210895B2
:1007B000089581E008950895CF93DF93D82F0E9484
:1007C000D903C82F882319F08D2F0E94DB038C2FAB
:1007D000DF91CF9108950895CF93C82F0E94D80339
:1007E0008C2F0E94DC03CF91089580E00E94EC03DF
:1007F00008950E946B200E94EC030895CF930E94FD
:100800006B20C82F8091A2028C1779F0C093A202AE
:100810000E94E9216093A3027093A4028093A50231
:100820009093A6028C2F0E94EC03CF910895ADE027
:10083000B0E0EDE1F4E00C94502A488759876A87CC
:100840007B878C879D8791110E94D40B1F8286E045
:10085000FE013896DE01119601900D928A95E1F71E
:100860008D8181110DC029813A814B815C816D811F
:100870007E818F810E941A0B2D96E2E00C946C2AE7
:10088000CE0101960E942C038111EDCFF5CFFC0122
:100890008481813021F4808191810E94C70808956C
:1008A000CF93C82F882399F08CEF8C0F813A88F46E
:1008B0008C2F0E94E320882329F08C2F0E9428216E
:1008C0000E94450C8C2F0E9420210E94450CCF9144
:1008D000089580E28C0F883048F4C77081E001C031
:1008E000880FCA95EAF70E94B50BEFCF8BE58C0F06
:1008F000833038F42C2F2452330BC9010E948320FB
:10090000E6CFC85ACB3118F7EC2FF0E0EE0FFF1FFF
:10091000EE5EFD4F808191810E94A920D8CF88236F
:1009200039F19CEF980F913A28F40E9428210E94F7
:10093000450C089590E2980F983050F4877091E03C
:1009400001C0990F8A95EAF7892F0E94BB0BEFCF60
:100950009BE5980F933028F480E090E00E9483207C
:100960000895885A8B3120F480E090E00E94A920FD
:1009700008951F93CF93DF93182FEB010E9450042B
:10098000209739F4812F0E948F04DF91CF911F911E
:1009900008958FE99FE00197F1F700C000002197CB
:1009A000EFCF60E070E0893311F460E570E00E9401
:1009B000B9040895882321F00E94B50B0E94450CCC
:1009C0000895882321F00E94BB0B0E94450C0895D6
:1009D000A0E0B0E0EEEEF4E00C944A2A6C01D62FD1
:1009E000C72FFC010581F680F2948FE0F8220E9467
:1009F000AA0BE82E8823F9F0E02E0023E1F08C2FDB
:100A0000807F803461F080E28D0F8830A0F18C2FE0
:100A1000807E803221F4D23070F1FF2061F180912C
:100A2000E70382FF28C082E00E946A0C0E94AA0BA2
:100A300091E0E82EE9268C2F82958F70883009F49A
:100A4000E7C0B0F58430C8F41C2F1F70823008F462
:100A500040C0C07FC03211F01295107FDD2309F431
:100A600067C0D13009F497C0002309F4A3C0FF2068
:100A700009F47AC041C0E12CDECF843009F4ABC068
:100A8000EE2089F00E94A60B80FD0DC0F6011582B4
:100A90000E94A00B0E94CE07C6010E940E070E9472
:100AA000A00B0E94DE07CDB7DEB7E8E00C94662A03
:100AB000893009F424C18A5F8F70823008F7D23FF1
:100AC00009F02EC18C2F8F71011127C10E94CE0712
:100AD000CEC0C03110F01295107F002399F0112381
:100AE00059F080E28D0F883010F0D11107C0812FAE
:100AF0000E94B50B0E94450C8D2F28C0812F0E94AB
:100B0000C60BF8CF8D2F0E948F04112309F4B8CFA4
:100B100080E28D0F883010F0D11104C0812F0E9427
:100B2000BB0B03C0812F0E94CC0B0E94450CA8CFA9
:100B30008091E70382FD14C0002359F0112329F0AE
:100B4000812F0E94B50B0E94450C80E00E9450044A
:100B500097CF80E00E948F04112309F491CFDECF5C
:100B6000002369F0F11004C0812F0E94DA0488CFBD
:100B7000F1E0FF1285CF812F0E94EC0B81CFF110A5
:100B80007FCF812F0E94E104812F0E94F80B812FDB
:100B90000E94DB0B75CF002329F025E02F1508F408
:100BA0006FCFE2CF84E08F1508F46ACF812F0E94C7
:100BB000E10466CFFF20D1F3D93349F49FEFE7EE8C
:100BC000F3E09150E040F040E1F700C000008D2FCD
:100BD0000E948F0455CF8C2F86958695837088232D
:100BE00069F0813009F04CCF8D2F9C2F937001114B
:100BF00002C080E090E00E94A92042CF8D2F9C2F60
:100C00009370011102C080E090E00E94832038CFF1
:100C10008C2F8370811139C0011129C04D2F42954D
:100C200046954770440F440F2D2F2F7030E0042E4F
:100C300002C0220F331F0A94E2F780E090E0D4FF55
:100C400009C08FE090E002C0880F991F4A95E2F733
:100C500080959095C695C695C370822B932BC23014
:100C600071F0C33079F0C13039F00E949E070E94C4
:100C70006B200E94EC0304CF0E949507F8CF0E94DE
:100C8000A707F5CF0E949207F2CF002361F1C0FFC2
:100C9000EECF4D2F429546954770440F440F2D2FB0
:100CA0002F7030E0042E02C0220F331F0A94E2F7A7
:100CB00080E090E0D4FF09C08FE090E002C0880F90
:100CC000991F4A95E2F780959095C695C695C37091
:100CD000822B932BC23069F0C33071F0C13031F0F8
:100CE0000E940908C4CF823010F2D3CF0E940008BE
:100CF000BECF0E941208BBCF0E94B607B8CFCF70FC
:100D0000002339F08C2F0E94CE078D2F0E94DA0429
:100D1000AECF8D2F0E94E1048C2F0E94DE07A7CF5B
:100D2000D33F70F4D03FB9F0D13F89F1002309F4EB
:100D30004CC0FF2009F446C08D2F0E94500497CF6D
:100D4000D33FB9F0D43FF9F00111F3CFF1104AC00D
:100D50008C2F8F71E2CF002349F024E02F1508F487
:100D600086CF8C2F8F710E94F00781CF85E0F81617
:100D7000F6CF002329F08C2F8F710E94C20777CF06
:100D80000E94BD0774CF8091E70382FD05C08C2FC0
:100D90008F71002311F29ACE002349F0CF718C2F6E
:100DA0000E94CE0763E08C2F0E944C0C60CF81E044
:100DB0000E946A0C91E09F1508F059CF82E00E94D2
:100DC0006A0C55CF8C2F8F7181CEFF2009F2D93359
:100DD00049F4EFEFF7EE23E0E150F0402040E1F777
:100DE00000C000008D2F0E948F0441CF0F931F93EE
:100DF000CF93DF93EC01688179818D810E94D408C3
:100E00008C010E941B080E949107B801CE010E942C
:100E1000E804DF91CF911F910F910895CF93DF9355
:100E2000EC018C81882399F0CE010E946B03811123
:100E300011C00E94AA0B882351F08D81882339F0BC
:100E40008091E70382FF03C082E00E946A0CDF9179
:100E5000CF910895CE010E94F606CE010E943A037A
:100E6000F6CF80E090E00E94832080E090E00E9436
:100E7000A9200E94D40B0E94450C08950E943021A5
:100E80000E94310708950E94C30B0E943E070895F7
:100E9000282F92959F70963091F060F4925F9F702A
:100EA000923030F481E0203F79F030F4283E30F089
:100EB00080E008959A5FF3CF243FD1F7089581E051
:100EC000283EE0F3213FF9CF0895FC018481882377
:100ED00039F0808191810E94C7080E9448070895D7
:100EE00080E00895A6E0B0E0E8E7F7E00C94502A2F
:100EF0002696E2E00C946C2AA7E0B0E0E2E8F7E086
:100F00000C94502A2796E2E00C946C2A08950E94D3
:100F1000860708950E9487079093CB028093CA02A8
:100F2000089508950E948A0708952091CA02309179
:100F3000CB02822B932B0E948A0708952091CA022C
:100F40003091CB02822393230E948A070895209137
:100F5000CA023091CB02822793270E948A07089504
:100F60000E94860708950E94B00708950E94B30763
:100F70009093C9028093C802089580E090E00E9497
:100F8000B607089521E030E0A90102C0440F551FC3
:100F90008A95E2F7CA010E94B607089521E030E081
:100FA00002C0220F331F8A95E2F78091C802909108
:100FB000C902822B932B0E94B607089521E030E0EE
:100FC00002C0220F331F8A95E2F720953095809159
:100FD000C8029091C902822393230E94B607089504
:100FE00021E030E002C0220F331F8A95E2F78091A2
:100FF000C8029091C902822793270E94B6070895DC
:101000002091C8023091C902822B932B0E94B6070F
:1010100008952091C8023091C902822393230E942F
:10102000B60708952091C8023091C90282279327FC
:101030000E94B607089508959B01677091E001C072
:10104000990F6A95EAF763E0369527956A95E1F777
:10105000220F331F220F331FFA01E20FF31F40E06C
:1010600050E0682F70E08191DF0111979B01042E01
:1010700002C0369527950A94E2F72170219528271A
:10108000292328272C934F5F5F4F4430510559F790
:1010900008959C01982F977083E0369527958A953F
:1010A000E1F7220F331F220F331FFB01E20FF31F63
:1010B00040E050E080E0219130E0092E02C03695FA
:1010C00027950A94E2F721703327042E01C0220FDE
:1010D0000A94EAF7822B4F5F5F4F4430510559F76E
:1010E0000895282F862F953068F42C3058F4622FFD
:1010F00070E02CE0929F600D711D112448EA52E0CF
:101100000E941C080895292F953068F48C3058F4FB
:1011100090E068EA72E03CE0239F800D911D11246D
:101120000E944908089580E00895A0E0B0E0EBE94E
:10113000F8E00C94492A8C01E090C802F090C902B2
:101140008091CA029091CB02E82AF92ACFE0D0E040
:10115000CC24C394D12CC6010C2E02C0880F991F39
:101160000A94E2F78E219F21892B49F4219798F761
:10117000B12C8B2DCDB7DEB7E9E00C94652ABC2EDF
:10118000B8018C2F0E945B0F019781F3F2CFCF93B0
:10119000DF93D82FC92F0E9495086D2F7C2F0E94B6
:1011A0005B0FDF91CF9108951F93CF93DF93162F9D
:1011B000D72F9091A702992341F0862F972F0E9455
:1011C000C708DF91CF911F910895882381F0862F62
:1011D000972F0E949508C82F682F812F9D2F0E945E
:1011E0007108612F7D2F8C2F0E945B0FEACF862F15
:1011F000972F0E948308C82FF4CF0F931F93CF938C
:10120000E091CC02C7E08091CD028E1304C0CF9153
:101210001F910F9108950E2F10E0CE9FF001112421
:10122000E253FD4F20813181428153816481758178
:1012300086810E947C07F8013196E770E4CF209107
:101240000603309107034091080350910903609110
:101250000A0370910B0380910C030E947C07089590
:1012600080910C03803178F480910B03882359F02E
:10127000E091CC022091CD0230910703409106030A
:1012800057E02E1301C008956E2F70E05E9FF001AD
:101290001124DF01A253BD4F14968C91149788231B
:1012A00061F111968C911197831327C08C9184134F
:1012B00024C015968C91159781111FC012968D919F
:1012C0009C91A0910803B09109038A1B9B0B883C59
:1012D000910598F480910C038F70806180930C03CA
:1012E000EC52FD4F80818F708061808386E093E0B7
:1012F0000E940E070E94FD080895FB013196E770D9
:10130000C0CFE091CC029091CD0227E0E91302C05A
:1013100080E00895AE2FB0E02E9FF0011124E2533B
:10132000FD4F3181361306C03081381303C035813B
:10133000341304C0FD013196E770E8CF81E00895D1
:101340008F929F92AF92BF92DF92EF92FF920F9394
:101350001F93CF93DF93CDB7DEB72D970FB6F894D9
:10136000DEBF0FBECDBF8C0186E0F801DE0118960E
:1013700001900D928A95E1F7F801E080F580A28056
:10138000B380848196E0892E93E0992E90910A0390
:1013900091111BC0882309F4FCC0FF2009F43DC152
:1013A000C8010E946507882309F437C187E0F80166
:1013B000D40101900D928A95E1F7C4010E9447047F
:1013C0000E9430090E941F09E4C0D0900B032091B5
:1013D000080330910903A501421B530BDD2009F4DA
:1013E000DBC0483C510508F0A6C0882309F4D1C0F1
:1013F00090910703918080910C03803108F06BC0BD
:10140000991228C0909106039E1124C0F1105DC06E
:101410008F70806180930C030E941F0986E093E027
:101420000E940E0780910C03F8018683F12C8F2D0A
:101430002D960FB6F894DEBF0FBECDBFDF91CF91D2
:101440001F910F91FF90EF90DF90BF90AF909F9012
:101450008F900895F11039C040E0692D8E2D0E94C3
:10146000810940E0692D8E2D0E948109F82E81119D
:10147000DDCF888599850E94C708292F22952F7076
:10148000903450F49F70223080F0992399F0F80145
:101490009681903178F4CBCF2A5F2F70223078F08C
:1014A000C8010E940E07FD2CC2CF992319F0882392
:1014B00009F4BDCF805E883008F4B9CFF1CF803F0A
:1014C00008F4B5CF815F8230F7CF80910C03816043
:1014D00080930C03ABCF991207C0909106039E1125
:1014E00003C0FF2009F479C0C8010E946507882362
:1014F00009F493C0FF2009F490C080910C0380325E
:1015000088F020910603309107033A832983BC8237
:10151000AB8290910A039D831E828F83CE01019638
:101520000E940E0787E0F801A6E0B3E001900D925B
:101530008A95E1F745CF90910C039031A0F448854E
:1015400059856A857B858C859D850E94720786E01A
:1015500093E00E940E0787E0F40111928A95E9F763
:101560000E941F0963CF8823A1F020910703818186
:101570002813BACF809106038E11B6CFF110B4CFE5
:101580009683C8010E940E0787E0F40111928A95A4
:10159000E9F7FF24F3944BCF483C510508F041C0D4
:1015A0008823B9F3FF20C9F1909107038181981333
:1015B0002AC0809106038E1126C080910C0380FD05
:1015C00019C08031B8F08683807F803F39F08681F2
:1015D000982F907F905F8F70892B8683C8010E941F
:1015E0000E0787E0F801A6E0B3E001900D928A951E
:1015F000E1F7E8CE87E0F801A6E0B3E001900D92B4
:101600008A95E1F7C6CFC8010E94650781118ACF8C
:1016100080910C03816080930C03C8010E940E0727
:10162000B8CF488559856A857B858C859D850E94C4
:10163000720791CFAEE0B0E0E0E2FBE00C944F2AFD
:10164000288739874A875B876C877D878E87CE019D
:1016500008960E94A0098823B1F06C85662341F0AA
:10166000288539854A855B857D858E850E947C0726
:1016700017E08091CC029091CD0289133EC02E9646
:10168000E3E00C946B2A87E0FE013896DE011196A8
:1016900001900D928A95E1F72091CD024091CC0204
:1016A0008C85882329F330E0C9010196877099273A
:1016B00050E08417950799F097E0929FD001939F8F
:1016C000B00D1124A253BD4FFE01319601900D9231
:1016D0009A95E1F78093CD020E94FD08C9CF0E9440
:1016E00043071092CD021092CC0287E0E6E0F3E0CF
:1016F000DF011D928A95E9F7BBCF189FC001112425
:1017000082539D4F0E94A009882309F4B8CFE0912D
:10171000CC021E9FF0011124E253FD4F2081318144
:10172000428153816481758186810E947C0780910A
:10173000CC0290E00196877099278093CC0299CFD4
:101740008091150386958695869508958091150359
:101750008770089590911503977081E0911101C0F1
:1017600080E0089580912103089590912103982BA2
:10177000909321030895982F9095809121038923B8
:1017800080932103089510922103089590912003DE
:10179000982B909320030895982F90958091200383
:1017A00089238093200308951092200308950895BB
:1017B0000E94D70B089590911603292F28232223E6
:1017C00031F080958923809316030E94D80B0895E9
:1017D00008950E94E80B089590911703292F28235C
:1017E000281729F0982B909317030E94E90B08956E
:1017F00090911703292F2823222331F080958923E4
:10180000809317030E94E90B0895809117038823A2
:1018100029F01092170380E00E94E90B08950F93BE
:101820001F93CF93DF930091FC011091FD01C091B4
:10183000210380912003C82BD0911703DD2331F0C1
:101840000E94CF2081110E94050CCD2BF801C0838E
:10185000C091FC01D091FD0148E050E06DE073E0E3
:10186000CE010E94802A892B59F088E0FE01ADE06C
:10187000B3E001900D928A95E1F7CE010E947820A5
:10188000DF91CF911F910F9108950E940F0C089541
:1018900008950E94480C08959091E70392FF11C0AB
:1018A00098E0899F90011124622B609315030E9498
:1018B000CE07809115038695869586950E94490CE2
:1018C00008950E94CE0708951092150380E00E94AB
:1018D000490C0895909115038095892380931503F1
:1018E000282F277021110DC0891759F09091E70317
:1018F00092FF07C08695869586950E94DE070E9416
:10190000640C08959091E70392FB222720F9281791
:1019100069F080FB92F99093E7038091E603909140
:10192000E7030E94CA0C82E00E946A0C089580912D
:10193000E70382FB882780F991E089270E94820CC7
:10194000089581E00E94820C089580E00E94820C3C
:1019500008956FEF7FEF80E090E00E94E92A0895FC
:1019600080E090E00E94B52A9C0181E0263E3E4F37
:1019700009F080E0089582E090E00E94AD2A089589
:1019800083E090E00E94AD2A089584E090E00E94F8
:10199000B52A0895BC0184E090E00E94E92A0895E8
:1019A000AB01BC018FE090E00E94DD2A0895AB01FD
:1019B000BC0183E190E00E94DD2A089560E070E0C0
:1019C000CB010E94D70C089560E070E0CB010E942B
:1019D000D00C0E94DE0C0895A8E0B0E0E2EFFCE03D
:1019E0000C94502A66EE7EEF80E090E00E94E92A97
:1019F00060E082E090E00E94CB2A81E090E090934A
:101A0000CB028093CA0261E083E090E00E94CB2A7F
:101A100060E074E184E090E00E94E92A60E086E002
:101A200090E00E94CB2A6FEF87E090E00E94CB2AE3
:101A300040E050E0BA0188E090E00E94DD2A60E0DA
:101A400084E290E00E94CB2A60E087E190E00E946F
:101A5000CB2A60E08CE090E00E94CB2A60E08DE031
:101A600090E00E94CB2A19821A821B821C821D825E
:101A70001E821F82188648E050E068E170E0CE01C7
:101A800001960E94BB2A40E050E0BA0180E290E05B
:101A90000E94DD2A0E94E40C2896E2E00C946C2A55
:101AA0000E94EC0C0895682F8EE090E00E94CB2AF3
:101AB0000895A6E0B0E0EFE5FDE00C944E2A0E9408
:101AC000DD218C01809122039091230380179107DF
:101AD00079F019821A820E94DD21BC0149815A8164
:101AE00080E090E00E9417041093230300932203E8
:101AF0002696E4E00C946A2A0E94E921609332035E
:101B000070933303809334039093350360932E03D3
:101B100070932F03809330039093310308950895B9
:101B20000E94C202089508950E94930D089583E5CE
:101B300090E10E9422120E948F0D0E94900D089544
:101B400081E008950E94A00D08950E94A00D0895BF
:101B5000089508950E94A80D0E94A90D08950E945D
:101B600072100E94EB030E94E91A08950E94D4218A
:101B70000E9459110E94AF0D0E94940D0895A6E095
:101B8000B0E0E5ECFDE00C94442A0E94A20D811126
:101B90000AC00E94590D0E94161A0E94FE03269642
:101BA000EEE00C94602A0E946F1124E2822E23E062
:101BB000922E640110E0F601E190F1906F01812F07
:101BC0000E9498101F5F153009F44BC0E816F90603
:101BD00091F38091360381FD0E94A1100E94A50D12
:101BE000782E10E0812F0E9498107C01F401A190C2
:101BF000B1904F018A159B0571F1A826B92600E026
:101C0000CC24C394D12CC5018C219D21892BD1F0EA
:101C100066246394C7018C219D21892B09F4612CD2
:101C2000772059F009831A830E94DD21BC01498184
:101C30005A8181E0962D0E941704462D602F812F36
:101C40000E9410150F5FCC0CDD1C0C30E1F6F40186
:101C50003297F182E0821F5F153021F60E947C0DE1
:101C60009ACFE816F90609F0B4CF93CF1F93CF931C
:101C7000DF930E94600FEC01811522E5920708F0C6
:101C800053C0811540E5940708F0DDC0803E910502
:101C9000F8F48D3C910508F0AEC0883A910580F4C7
:101CA000853A910508F099C08130910521F004979B
:101CB000813A910550F4CE01DF91CF911F910895A3
:101CC000885A91094B9708F48BC0C0E0D0E0F3CF5D
:101CD000811550E49507F8F4C11580E2D80708F0A3
:101CE000CBC0C83ED10538F3CE019A9581159F41EE
:101CF00060F78D2F0E940410182FCE0199270E94A3
:101D0000600F212F30E0322F2227E901CC27DF712D
:101D1000C82BD92BD0CF99270E94600FCC27DF701A
:101D2000C82BD92BD06AC7CF803842E59407C8F5B5
:101D3000803652E5950708F067C0C03482E5D807C1
:101D4000B0F08C2F86958695877020E2829FC00127
:101D50001124C37021E030E0A90102C0440F551FD7
:101D6000CA95E2F7EA01C82BD92BDC68A4CFC032B0
:101D700052E5D50708F041C08C2F8695869520E264
:101D8000829FC0011124C37021E030E0A90102C08C
:101D9000440F551FCA95E2F7EA01C82BD92BDD681D
:101DA0008ACF803C52E5950760F48F71C03AD245E6
:101DB00008F03FC090E0982F8827EC01C46FD06AEC
:101DC0007ACF805C9245809708F07FCFDC2FCC27BC
:101DD000CC27DF71C06FD06A6ECFA497D0646BCF71
:101DE000C85AD0E0CC0FDD1FC85BDD4F0990D88109
:101DF000C02DD46460CFD0655ECFCF71D0E0DC2F32
:101E0000CC27C16FD06A57CF86958695877020E220
:101E1000829FC0011124C37021E030E0A90102C0FB
:101E2000440F551FCA95E2F7EA01C82BD92BDA688F
:101E300042CF0E940410C82FD0E0DC2FCC27CC2743
:101E4000DF71D06238CF8F710E94041065E0D695A3
:101E5000C7956A95E1F7CF70D0E0DC2FCC27282F0B
:101E600030E084FF05C054E0220F331F5A95E1F79C
:101E7000C22BD32BD0691FCF8D2F8F710E940410DE
:101E8000182FCE0199270E94600F212F30E0322FAA
:101E9000222722273F71282B392BE901D2CF462F49
:101EA000672F753028F44C3018F40E94DF02089533
:101EB00080E090E008950E944F0F0E94360E089532
:101EC000803E9105D1F1C8F48133910509F47FC0BA
:101ED00048F48932910509F46FC08A32910509F4FA
:101EE0007DC0089589339105E1F082389105C9F0EC
:101EF0008533910509F45BC00895843E9105D1F1C5
:101F000048F4823E910531F1833E910541F181EE25
:101F100090E00895863E9105C1F1873E9105E1F17B
:101F200008952091E6032370211165C02091E703F5
:101F300023FF14C089E290E008952091E60320FD7C
:101F400043C03091E70330FF09C024FF4EC080E05A
:101F500090E008952091E60322FDF7CF08952091A7
:101F6000E60322FD45C03091E70330FD44C024FF65
:101F7000F5CFEDCF2091E70321FFF0CF8091E6036D
:101F800084FDE5CF87EE90E008952091E60323FFDE
:101F9000E5CF24FDDCCFF6CF2091E60323FD2EC054
:101FA0003091E70331FFE3CF84EE90E00895209174
:101FB000E60325FFD3CFBECF2091E60325FD21C048
:101FC0002091E70323FFCACF89E390E00895209191
:101FD000E60326FFC3CF8AE290E008952091E6034E
:101FE00026FFBCCF81E390E0089583EE90E0089552
:101FF00082EE90E0089580EE90E0089586EE90E005
:10200000089585E390E0AACF9091E60392FF10C077
:1020100041E0282F2471243009F040E031E0282FDE
:102020002871283009F030E0431711F02CE08227A6
:1020300093FF10C041E0282F2471243109F040E0C3
:1020400031E0282F2871283109F030E0431711F0D2
:102050002CE082273091E70330FF10C051E0282F99
:102060002171213009F050E041E0282F28712830FB
:1020700009F040E0541711F029E0822731FF10C029
:1020800041E0282F2171213109F040E031E0282F73
:102090002871283109F030E0431711F029E0822738
:1020A00094FD877E089580E008950E94A90C08950C
:1020B0000E946F112FEF86E791E021508040904001
:1020C000E1F700C000000E946F1180E00E949810AC
:1020D00080FF04C00E9455100E94592208950E945A
:1020E000581008950E94B00C811102C00E94500D3A
:1020F0000E94BB0C809336030E94C50C9093E703AB
:102100008093E6030E946F100E94C00C90E00E9432
:1021100092078091C8029091C9020E94B307089566
:1021200008950E949010089508950E9494100895B3
:10213000E82FF0E0EE0FFF1FEE50FC4F8081918101
:102140000895089580EA8A95F1F7089500C00895EA
:102150000E94A2100895F894E82FE295EF70F0E045
:1021600041A18F7021E030E0B90102C0660F771FF6
:102170008A95E2F7CB01962F9095942391A392A193
:10218000892B82A3789408950F931F93CF93DF93A5
:10219000CEE7D2E089918F3F11F00E94AB1082E030
:1021A000CA38D807B9F7CAE8D2E00FE812E0899137
:1021B0008F3F11F00E94AB100C171D07C1F7DF9184
:1021C000CF911F910F910895AF92BF92DF92EF923E
:1021D000FF920F931F93CF93DF93D82EE92EF62E05
:1021E0008A01C62FD0E0C258DD4F88818F3F09F4A5
:1021F00053C0F894E82FE295EF70F0E091A18F7052
:1022000021E030E001C0220F8A95EAF7892F822B66
:1022100081A382A12095282322A378940E94A6104E
:102220008AE8A82E82E0B82EED2DFE2DAF01465F84
:102230005F4FE12CB80160957095D501DD905D018F
:1022400021913191BFEFDB1689F18D2D82958F7031
:10225000805E90E0DC018C9190E0BD2DBF7002C0EB
:1022600095958795BA95E2F7817081111FC0202B53
:10227000312BEE24E394CF010297DC012D933C93A4
:102280004E175F07D1F688818F3F11F00E94AB1087
:102290006E2D8F2D0E94A810DF91CF911F910F916D
:1022A000FF90EF90DF90BF90AF90089526233723E3
:1022B000E2CF0E94C4108AE0E2EFF3E0DF01982F42
:1022C0001D929A95E9F7E8EEF3E0DF011D928A95F9
:1022D000E9F785E00E94C5110E9491100895CF9200
:1022E000DF92FF920F931F93CF93DF93CDB7DEB7AB
:1022F0002A970FB6F894DEBF0FBECDBFFE01319610
:102300008AE0DF011D928A95E9F710E0CC24C3949E
:10231000D12CFE2E0F2FA601612F8F2D902F0E9402
:10232000E4101F5FCC0CDD1C1C30A9F74AE050E024
:102330006F2D702F88EE93E00E94802A21E0892B78
:10234000D1F420E045E062EF73E088EE93E00E9474
:10235000C611182F0E949510812F2A960FB6F89457
:10236000DEBF0FBECDBFDF91CF911F910F91FF90C8
:10237000DF90CF9008958AE0EF2DF02FA8EEB3E024
:1023800001900D928A95E1F7DDCF0895A0E0B0E0CD
:10239000ECECF1E10C944A2AD82EE92EF62ED72F38
:1023A000042FC22F222379F081E0809339030E9409
:1023B000DD21909338038093370380E0CDB7DEB7FB
:1023C000E8E00C94662AC0903903CC20B1F38091E8
:1023D0003703909138030E940622059770F310E0AE
:1023E000000F111FA8016D2D7E2D8F2D9D2F0E9496
:1023F000802A892B41F0A8016D2D7E2D8F2D9D2FD8
:102400000E948D2ACC2D109239038C2FD7CF0E9499
:10241000AB240E94B60D0E94B82408950E94BD24EA
:102420000E94BF0D0E94D72408950E9476210E9429
:1024300091240E94970D0E9407120E940E120E9482
:10244000AA0DFBCF9093A1028093A0020895A0E073
:10245000B0E0EDE2F2E10C94482AE82F71110DC0D2
:10246000442321F0F0E0EC5EFC4F8491682F782F3C
:10247000CDB7DEB7EAE00C94642A262F30E0C72FF0
:10248000D0E0F0E0442321F0EC5EFC4FE491F0E07A
:1024900086E0829F7001839FF00C11240FEF10E003
:1024A000C701B8010E94D129AB01220F331F65E596
:1024B000649FC001659F900D1124281B390BC22E0B
:1024C000CC0CC20EC8018C1B9D0B8E9F90018F9F60
:1024D000300D9E9F300D1124832FCC9EB001CD9ED8
:1024E000700D1124672F77275801A61AB70AAE9EE0
:1024F000D001AF9EB00DBE9EB00D11247B2F5801B0
:10250000AC18B1086501CC9E5001CD9EB00CDC9E8C
:10251000B00C1124AB2CBB240A191B090E9FE0013F
:102520000F9FD00D1E9FD00D11246E2F43305105EB
:10253000C9F09CEFE91693E0F90650F441305105DB
:1025400009F496CF4230510589F07E2F6D2F90CF40
:102550004430510571F046305105B9F3632F8B2F8C
:102560007E2F86CF6B2F732F8E2F82CF732F8D2FC1
:102570007FCF7D2F632FF8CF41E00E94271208956F
:102580009C0180E090E0269F812D369F800D911D5B
:10259000112408959C018230910508F408959FEF5D
:1025A000213E8EE1380740F4C90145E096958795B4
:1025B0004A95E1F798E0980F61E0E62FE90FFF27D1
:1025C000FF1FAF0155954795842F449FF001459F0C
:1025D000F00DF00D11242E173F0738F49FEF940FE4
:1025E000961758F78FEF860F08954F3FE9F361E094
:1025F000640FF6CF982FE82F96FDE0958E2F8F7001
:1026000096FD8F5FE695E695E695E670F0E0E1577A
:10261000FD4F2181289F202D812D112422952F707F
:102620008295807F282B8081820F97FD819580582D
:1026300008951F93182F822FE42FF0E0EE0FFF1F55
:10264000E45CFE4F408124EE429F412D1124E12F96
:10265000F0E050E09A01245E3F4F281B310937FF1C
:1026600003C031952195310983E0220F331F8A95EC
:10267000E1F7CF01821B930B9C0197FF02C020E082
:1026800030E0219F212D1124822F1F910895E42FE6
:10269000F0E0EE0FFF1FE45CFE4F6081621B0895C7
:1026A000E42FF0E0EE0FFF1FE050FF4F65AD621B1F
:1026B0000895EF920F931F9310E09801220F331F9C
:1026C000200F311F359527956E2D620F1F910F91A9
:1026D000EF90089522E8241B08F420E0620F08958B
:1026E000EF92FF920F93970195E0099F200D311D06
:1026F00011242F3F310519F010F02FEF30E0209515
:10270000382F320F08F43FEF832F0F91FF90EF9097
:102710000895EF92FF920F93E00EF11CF90137FF3D
:1027200003C0F195E195F10924E0EE0FFF1F2A9512
:10273000E1F7EF3FF10519F014F0EFEFF0E09A0147
:1027400057FF03C031952195310994E0220F331FC3
:102750009A95E1F72E173F070CF4F901EE0DFF1DD6
:10276000EF3FF10519F010F0EFEFF0E02E2F20957C
:10277000382F320F08F43FEF832F0F91FF90EF9027
:10278000089590913A03982B90933A030895FC0191
:102790009B01009719F4832F80780895AC0197FF6F
:1027A00004C044275527481B590BB901640F751FF6
:1027B00037FD0FC0C901841B950BA5E0880F991F39
:1027C000AA95E1F70E94E52980E2861BF7FD819535
:1027D0000895CB0165E0880F991F6A95E1F7BA016A
:1027E000621B730B0E94E52980E6EFCFFF920F93E7
:1027F0001F93CF93DF93D62FC72F182FBA01C9018C
:10280000F12EF01A0E94C713982F990F990F082FD5
:10281000091B0F0D019F012D11246D2F7C2F802F7F
:10282000CDB7DEB7E5E00C94692AEF920F931F93C2
:10283000CF93DF93D62FC72F182FBA01C9010E19D6
:10284000010F0E94C713081B019F012D11246D2F3A
:102850007C2F802FDF91CF911F910F91EF900895E2
:1028600048E050E068E170E08CEF93E00E94BB2A02
:1028700010923A0308950E94BC120895A0E0B0E0BF
:10288000E4E4F4E10C94432A882E762E062F10E01F
:102890002CE0829FC00111249C0120503F4FF90180
:1028A000E00FF11FC081CF3FB1F1A12CB12C612C01
:1028B000D0E09E01220F331FA901445C5E4F6A01E4
:1028C000E901C35CDE4F87599C4F080F191F750142
:1028D000912C88E2582EF701E050FF4F20812F3FC6
:1028E00059F086101DC079101BC0F801208130E21C
:1028F000230F08F42FEF208393947FEFE71AF70A52
:102900008CE09812E8CF6394ECE0AE0EB11CFCE3CF
:10291000AF16B104E1F6CDB7DEB7EFE00C945F2A55
:1029200030E0F6014081F901EE0FFF1FE45CFE4F3D
:102930008081481B550B8881220F331FF901E0501D
:10294000FF4F95AD682F691B770B9B01449FB0012A
:10295000459F700D700D1124229FC001239F900D83
:10296000900D1124860F971F0E94CA12382F8932AA
:1029700018F6252D231B08F420E0F701E759FC4F3A
:10298000213108F020E13081320F08F43FEF30832D
:10299000B3CFECEFF3E089E1808380910F02909157
:1029A0001002A091110281839283A3838FE7848315
:1029B0008FEF85830E943014089580E008950F936F
:1029C0001F93CF93DF93C82FD62F8A010E94DD1467
:1029D0009CE0C99F9001112420503F4FF901ED0F59
:1029E000F11D90819F3F29F0F801E80FF11D9083C0
:1029F0008F5FDF91CF911F910F910895E0919D021C
:102A0000F0919E0209950895E0919902F0919A0241
:102A100009950895E0919B02F0919C020995089513
:102A2000A8E0B0E0E6E1F5E10C94482AE82EB62EE5
:102A3000A42E0E94A00D882309F457C0F12CAA20CF
:102A400041F0AE014F5F5F4F6B2D8E2D0E94DF1462
:102A5000F82E0F2D10E080913B03800F912F911DD8
:102A600009976CF188E090E06C01C01AD10AB801B6
:102A7000645C7C4FA6018CE393E00E948D2AB80130
:102A80006C5B7C4FA60184E493E00E948D2AA60132
:102A9000440F551FB801660F771F6C5A7C4F84E5B1
:102AA00093E00E948D2AB801645B7C4FA6018CE400
:102AB00093E00E948D2A88E08F1980933B03109148
:102AC0003B03DE01119640E0242F210FF41211C0C8
:102AD00020933B03AA2049F08091FC038C7F88322D
:102AE00021F46B2D8E2D0E943E142896EAE00C9462
:102AF000642A5D91852F90E030E0B901655C7C4FE0
:102B0000FC01EE0FFF1FE45CFE4F0081FB0101831F
:102B1000880F991FFC01E050FF4F85ADFB018187B5
:102B2000518BF901EE0FFF1FE55CFC4F128E118EE9
:102B30004F5FCACF0E94C00208959DE0899F802DFB
:102B40001124980F913408F090E40895A0E0B0E0CB
:102B5000ECEAF5E10C94422A3C012B01FC01808156
:102B60000E949D15C82F192F6091000466958091D1
:102B70000404909105040E94C012F82ED0E0CE010A
:102B8000880F991F9C0120503F4F6901C11748F0E1
:102B900081E0103408F080E0CDB7DEB7E0E10C94BE
:102BA0005E2AFE01E454FE4F8081F3019181892366
:102BB000882379F1F60184AD282F2057330B590172
:102BC00085ADE82FE052FF0B4F01AA9C9001AB9C12
:102BD000300D300D1124EE9FC001EF9F900D900D30
:102BE0001124820F931F0E94CA12082F6091FD03C7
:102BF0007091FE038091FF03EF2C9401A501F20177
:102C000009950E943B14462F672F282FCE010E9462
:102C10000415F2E0CF0ED11C2196B8CF65E174E126
:102C20000E94A615089569E573E10E94A61508950E
:102C30008F929F92BF92CF92DF92EF92FF920F936B
:102C40001F93CF93DF936C014B01FC0180810E94A5
:102C50009D15C82F192F609100046695809104047A
:102C6000909105040E94C012B82ED0E0CE01880FCA
:102C7000991F9C0120503F4F7901C11780F081E0DE
:102C8000103408F080E0DF91CF911F910F91FF90F9
:102C9000EF90DF90CF90BF909F908F900895FE01AE
:102CA000E454FE4F8081F601918189238823C1F08D
:102CB000F70125AD2052330B44AD4057550B6091C1
:102CC000FD037091FE038091FF030B2DF401099524
:102CD0000E943B14462F672F282FCE010E94041517
:102CE000F2E0EF0EF11C2196C8CF66EF73E10E946F
:102CF00018160895A0E0B0E0E0E8F6E10C944A2A46
:102D00007C016B01FC0180810E949D15C82F192F49
:102D1000609100046695669521E0620F08F46FEFFC
:102D200080910404909105040E94C012082FD0E005
:102D3000C11748F081E0103408F080E0CDB7DEB76D
:102D4000E8E00C94662AFE01E454FE4F8081F7010E
:102D500091818923882391F06091FD037091FE0396
:102D60008091FF03202F4C2FF60109950E943B1400
:102D7000462F672F282FCE010E9404152196D8CF09
:102D800069E173E10E947A16089567E473E10E9495
:102D90007A16089560E573E10E947A160895A0E01E
:102DA000B0E0E5EDF6E10C94472A8C017B01FC01D3
:102DB00080810E949D15C82FB92E2091000431E01A
:102DC000230F08F42FEF30E040E050E06FEF7FEF8B
:102DD00080E090E00E941B2A6901D0E0A22E9D2C89
:102DE0002C2FCB1550F081E0FFE3FB1508F480E0B9
:102DF000CDB7DEB7EBE00C94632AFE01E454FE4F3E
:102E00008081F80191818923882319F14091080478
:102E10004150042E000C550B47FF1DC08A2D992DE3
:102E20006091000421E0620F08F46FEF0E94C0126D
:102E3000AC016091FD037091FE038091FF03F701E7
:102E400009950E943B14462F672F282FCE010E9420
:102E500004152196C5CFFA01E85FFB4F81898213E3
:102E60000AC0FA01EE0FFF1FE85FFB4F818D928DC4
:102E70008C159D05A8F241505109CECF6AE673E149
:102E80000E94CF160895AAE0B0E0E9E4F7E10C94BF
:102E9000402A382E2B0149835A83FB0180810E94EE
:102EA0009D159D83F0910804FE83282F30E03A871A
:102EB0002987C901880F991FFC01E050FF4F6F015E
:102EC000832D90E09C012F5F3F4F38872F838D81AA
:102ED0009985981748F081E0ED81E03408F080E0B2
:102EE0002A96E2E10C945C2AE985FA85E454FE4FC7
:102EF0008081F20191818923882309F1F091FD03FA
:102F0000FB832091FE032C838F819885885F9B4FE4
:102F10003C01232C10E0FE812F16D8F02091FF03F6
:102F2000129F112D11246B817C81812F0E943B14F3
:102F3000462F672F282F89859A850E940415298599
:102F40003A852F5F3F4F3A87298732E0C30ED11C65
:102F5000BECFF30181913F01F601A4ACA81ABB08D2
:102F600085ACF3018781881A9908AA9C9001AB9CD3
:102F7000300D300D1124889CC001899C900D900D5E
:102F80001124820F931F0E94CA12082F609100041F
:102F900021E0620F08F46FEFF301EE0FFF1FE8501E
:102FA000F440858996890E94C0127C019401A50194
:102FB0006B817C81812FE981FA8109956B837C8308
:102FC000182F2394A8CFBC0140E753E180E00E9472
:102FD00043170895BC0149E853E180E00E9443177C
:102FE0000895A0E0B0E0E7EFF7E10C944A2A7C01F5
:102FF000FC0180810E949D15C82F192F6091FD034F
:103000007091FE038091FF030E943B14062FD72E80
:10301000C82ED0E0C11748F081E0103408F080E0FD
:10302000CDB7DEB7E8E00C94662AFE01E454FE4F0B
:103030008081F70191818923882331F02C2D402F45
:103040006D2DCE010E9404152196E4CFA0E0B0E0E2
:10305000ECE2F8E10C944A2A7C01FC0180810E9498
:103060009D15C82F192F0091FD03D091FE03D0901C
:10307000FF0360910004669566956695809104044F
:10308000909105040E94C0120E94FA12805887FD98
:103090008195880F282F3D2D239F212D1124822FCC
:1030A000602F7D2F0E943B14062FD72EC82ED0E014
:1030B000C11748F081E0103408F080E0CDB7DEB7EA
:1030C000E8E00C94662AFE01E454FE4F8081F7018B
:1030D00091818923882331F02C2D402F6D2DCE0135
:1030E0000E9404152196E4CFA0E0B0E0EAE7F8E101
:1030F0000C944A2A8C01FC0180810E949D15C82FE6
:10310000F92ED090FE03E090FF03D091FD03609173
:103110000004669566956695809104049091050477
:103120000E94C0120E94FA1220E8280F27FD219564
:10313000220F3CE0239F212D11246D2F620F7D2D46
:103140008E2D0E94BC12E62ED72EC82ED0E0CF15B1
:1031500050F081E09FE39F1508F480E0CDB7DEB723
:10316000E8E00C94662AFE01E454FE4F8081F801E9
:1031700091818923882331F02C2D4E2D6D2DCE0188
:103180000E9404152196E3CFA0E0B0E0EAECF8E15C
:103190000C94422AEC0188810E949D15582E092F1B
:1031A0008A81882361F040E060E080E00E940A1597
:1031B000E9E6F3E08CE3DF011D928A95E9F7888167
:1031C000882399F1C12CD12C612C9AEA492E7601E1
:1031D0008CE0782EF701E050FF4F5F01E081E515AC
:1031E00058F0E01748F4F0E0E454FE4F80819981F4
:1031F0008923811133C063947A94BFEFEB1AFB0AE1
:103200007110E8CFE0E3CE16D10431F0FCE0CF0E30
:10321000D11C2CE02615D8F681E0003408F080E0BF
:10322000CDB7DEB7E0E10C945E2A8091A6039091C1
:10323000A7030E9406229C0181E02931310508F490
:1032400080E08093A5032931310508F4BBCF0E94AB
:10325000DD219093A7038093A603B4CFC7018759BC
:103260009C4F4C01DC011C91612F25E5621B08F489
:1032700060E0842D861B682F7091FE03242D210FA2
:1032800008F42FEF3091FF03822F880F820F8E5F9B
:10329000282F239F212D1124822F0E943B14462F7B
:1032A000672F282FD5018C9190E00E940415809102
:1032B000A503882309F49FCF21E0121B08F410E036
:1032C000D4011C9398CFCF93C82F8091020291E034
:1032D0008C130CC02091FC03237030E0409103025A
:1032E00050E091E02417350709F490E09170909335
:1032F00001028091010490910002981739F08093A7
:10330000000240E060E080E00E940A15CE3008F044
:103310006FC0EC2FF0E0EF50F54D0C943A2A8091FD
:103320000102882309F46DC040E060E080E00E9463
:103330000A158091FF018F5F8093FF0182E08093E7
:10334000FE0180910102882309F460C0CF910895A5
:103350008FEF91E00E94F1179091FF019F5F909392
:10336000FF018111F3CF82E08093FE018091010281
:103370008111ECCFCC23E8CF8FEF91E00E9426188B
:10338000EBCF8FEF91E00E94C016E6CF8FEF91E078
:103390000E947516E1CF8FEF91E00E940E16DCCFF0
:1033A0008FEF91E00E94C516D7CF8FEF91E00E947A
:1033B000CA16D2CF8FEF91E00E941316CDCF8FEFB8
:1033C00091E00E947418C8CF8FEF91E00E94C4185A
:1033D000C3CF8FEF91E00E943E17BECF8FEF91E0F9
:1033E0000E94E317B9CF8FEF91E00E94EA17B4CFA4
:1033F0008091FF018F5F8093FF0182E08093FE0147
:10340000A5CF8091FF018F5F8093FF0183E0F6CF0E
:1034100081E008950E94081A0895FC01808181507E
:103420000E949D15692F0E940A1A08954F925F927B
:103430006F927F928F929F92AF92BF92CF92DF92C4
:10344000EF92FF92CF93DF9300D000D0CDB7DEB7DD
:103450008091640390916503A0916603B091670326
:1034600089839A83AB83BC83BC01CD010E94152262
:103470006B017C010E94E9216093640370936503F2
:103480008093660390936703A0913B03EBE3F3E023
:103490002A2F30E088248A94982CA12CB12C8C18E7
:1034A0009D08AE08BF08A3132FC020933B032091B3
:1034B000680321113CC02091FC03A22FA370A983B3
:1034C000AA2319F02695269529832091FE01223002
:1034D00009F455C070F5211141C01092FF016093AD
:1034E000040470930504809306049093070489E212
:1034F000EBE3F3E0A8E0B4E001900D928A95E1F7E8
:1035000081E08093FE0117C0418D528D2A01612C0C
:10351000712C84149504A604B70420F421503F5F55
:103520003296C1CF4C0D5D1D528F418FF8CF19825D
:10353000CCCF233081F10F900F900F900F90DF913F
:10354000CF91FF90EF90DF90CF90BF90AF909F9082
:103550008F907F906F905F904F90089589810E9427
:103560006319B981BB2339F38091FE01823011F4D4
:103570000E949A158FEF91E00E940D1ADCCF3981DD
:10358000309302028091FC038370809303020E94B7
:10359000FE1483E0B6CF80913A0381110E9430146B
:1035A0008091040490910504A0910604B091070451
:1035B000BC01CD010E94152269837A838B839C8391
:1035C000603171058105910508F4B5CF1092FE01B7
:1035D000B2CFE0919702F0919802099510920804F9
:1035E00040E150E06FEF70E081E294E00E94962AA3
:1035F00010923B0340E150E06FEF70E084E593E010
:103600000E94962A0E94B00C811104C00E94500DA5
:103610000E94C91481E080933A0348E050E068E1D9
:1036200070E08CEF93E00E949D2A10923A03809103
:10363000FC03843010F40E94C9140895CF93C82F5E
:10364000882391F08091680381110EC00E94631954
:10365000109202028091FC038370809303020E9407
:10366000FE1483E08093FE01C0936803CF91089518
:10367000ECEFF3E0908121E0922790831092FE011D
:103680000E94C113089581E00E94381B0895982F6D
:10369000862F2091FC032370222389F0992381F047
:1036A0009E3080F49F73990F990F2091FC03237033
:1036B000922B9093FC031092FE010E94C113089577
:1036C00091E0F1CF9DE0EFCF61E00E94471B0895AC
:1036D000682F8091FC03869586958F5F8E3008F069
:1036E00081E00E94471B089581E00E94681B0895B5
:1036F000682F9091FC03969596958FEF890F9130E6
:1037000009F48DE00E94471B089581E00E94781B18
:103710000895982F822F2091FC032370222341F0DB
:103720009093FD036093FE034093FF030E94C11337
:103730000895282FECEFF3E09181892F90E04381E9
:10374000628108960E94891B089581E00E94991B5E
:103750000895282FECEFF3E0818143816281885046
:10376000990B0E94891B089581E00E94A91B08956E
:10377000282FECEFF3E0628130E1630F08F46FEF84
:103780008181438190E00E94891B089581E00E941D
:10379000B81B0895282FECEFF3E0628130E1631B42
:1037A00008F460E08181438190E00E94891B0895C4
:1037B00081E00E94CA1B0895282FECEFF3E04381BB
:1037C00030E1430F08F44FEF8181628190E00E9465
:1037D000891B089581E00E94DC1B0895282FECEFDF
:1037E000F3E0438130E1431B08F440E081816281D2
:1037F00090E00E94891B089581E00E94EE1B0895CD
:10380000ECEFF3E0248130E1230F08F42FEF248361
:103810000E94C113089581E00E94001C0895ECEFFE
:10382000F3E0248130E1231B08F420E024830E948C
:10383000C113089581E00E940F1C0895E1E5F5E0B1
:103840006083418324E630E042E050E0BF01880F0E
:103850000E942D2308950F931F93CF93DF93082F7A
:10386000000FEB0114E21093510580E1FE01A2E587
:10387000B5E001900D928A95E1F724E630E041E150
:1038800050E061E575E0802F0E942D23105F609667
:10389000143B49F7DF91CF911F910F910895CF937A
:1038A000DF93C82F4BE06DEF0E941E1C40E06AE0E2
:1038B0008C2F0E941E1C8FE39CE90197F1F700C03A
:1038C000000040E060E08C2F0E941E1C40E061E0A0
:1038D0008C2F0E941E1C40E066E08C2F0E941E1C54
:1038E00040E06DEF8C2F0E941E1CD0E040E06D2F59
:1038F0008C2F0E941E1CDF5FD231C1F740E06D2F7C
:103900008C2F0E941E1CDF5FD432C1F740E06D2F68
:103910008C2F0E941E1CDF5FD43BC1F74BE06DEF84
:103920008C2F0E941E1C41E06AE08C2F0E941E1CFE
:1039300040E06DEF8C2F0E941E1CDF91CF91089507
:10394000A4E0B0E0E6EAFCE10C944D2AFC01F62E7E
:10395000042F122F8034910508F04BC0EE0FFF1F8B
:10396000EE0FFF1FBF0164557F4F44E050E0CE01D2
:1039700001960E94772A89818370282F30E06A811E
:103980006452770B40E9849FC00111248F5C9B4FE8
:10399000FC01E60FF71F5081AB814C815F110EC017
:1039A000FC01EA0FF11DB4975081501307C0840F3A
:1039B000911DFC01B49780818117D9F050E9529F85
:1039C000C001539F900D11248F5C9B4FFC01E60FAB
:1039D000F71FF082A80FB92FB11D94970C93FC012B
:1039E000E40FF11DB497108322533C4F81E0F9019D
:1039F00080832496E5E00C94692AFF920F931F932D
:103A0000CF93DF93182F062FF42EC0E0D0E02F2D98
:103A1000402F612FCE010E94A01C2196C034D105F9
:103A2000B1F7CDB7DEB7E5E00C94692AA4E0B0E0C9
:103A3000ECE1FDE10C94432A662E742E522E24E014
:103A4000829FB001112464557F4F44E050E0CE01C5
:103A500001960E94772A4A8150E0CA0184979C010E
:103A600097FF02C0295F3F4F73E0359527957A9500
:103A7000E1F74B8150E04A0164E2861A9108840123
:103A800097FE02C0095F1F4F63E0159507956A9581
:103A9000E1F74C8150E05A0174E2A71AB108F50130
:103AA000B7FC379643E0F595E7954A95E1F758E07E
:103AB000C52ED12CB6010E94E5297C01C401B601B6
:103AC0000E94E529482FC501B6010E94E529998188
:103AD0003327FF24592F5370662009F45AC0A2E1FE
:103AE0005A9F200D311D1124D901A655BC4F61E00C
:103AF00070E00E2C01C0660F0A94EAF72C91262B79
:103B00002C939370692F70E01127D80122E1929FC6
:103B1000A00DB11D1124A655BC4F9C9121E030E0B1
:103B200001C0220F4A95EAF7772009F448C0922B8A
:103B300042E1469F9001479F300D112426553C4F8E
:103B4000020F131FD8019C93FF27D901AE0FBF1F8F
:103B50004C9121E030E0D90102C0AA0FBB1F8A9529
:103B6000E2F7CD01552071F14A2B22E1269FC001D9
:103B7000279F900D112486559C4FE80FF91F408315
:103B800068557C4F81E0FB0180832496EFE00C9424
:103B90005F2AB2E15B9F200D311D1124D901A6558A
:103BA000BC4F21E030E0B90102C0660F771FEA94F4
:103BB000E2F77B01E0942C91E222EC92A2CF2095D7
:103BC0009223B6CF80954823D0CFCF93DF93262F73
:103BD00030E0E901C253DC4F9881992351F090E91C
:103BE000929FB001939F700D11246F5C7B4F0E94D8
:103BF0002B1C1882DF91CF910895EF92FF920F93C3
:103C00001F93CF93DF93D82F70E0CB0188559C4F43
:103C10007C01FC018081882399F082E1869F8001EC
:103C2000879F100D112406551C4FC0E0F8014191EB
:103C30008F016C2F8D2F0E941E1CCF5FC231B1F7F8
:103C4000F7011082CDB7DEB7E6E00C94682ACF9377
:103C50000E94882284E70E944F1C87E70E944F1C25
:103C6000C0E021E041E061E08C2F0E94161DCF5F93
:103C7000C034B9F760E084E70E94FD1D61E087E78A
:103C80000E94FD1DCF91089560E084E70E94E51D2C
:103C900061E087E70E94E51D0895FA01882311F08D
:103CA00009950895FB01FCCF1F93CF93DF93EC019F
:103CB000FB011581111151C00E94B20B8272FE01ED
:103CC000E052F847E531F10508F047C0E150F54D05
:103CD0000C943A2A0E94431B812FDF91CF911F91B0
:103CE000089545E85BE164E77BE10E944D1EF4CF57
:103CF00044E75BE165E87BE1F8CF44EB5BE165EA33
:103D00007BE1F3CF45EA5BE164EB7BE1EECF48ED8D
:103D10005BE166EC7BE1E9CF46EC5BE168ED7BE1E2
:103D2000E4CF4CEF5BE16AEE7BE1DFCF4AEE5BE193
:103D30006CEF7BE1DACF4AE15CE16BE07CE1D5CF6F
:103D40004BE05CE16AE17CE1D0CF81E00E94641B42
:103D5000C3CF82E0FBCF86E0F9CF11E0BDCFCF9398
:103D6000DF93EB0186319C4719F50E94B20B9D81D0
:103D70009923A1F08A7A91E0811101C090E090939B
:103D8000D003882349F085E30E9420210E94450C3E
:103D900080E0DF91CF91089589E2F6CF8091D00342
:103DA000882321F085E30E942821F0CF89E2FBCF10
:103DB00081E0EFCFCF93DF93EC01FB018581882376
:103DC00009F4D2C09E0130572332310508F0B2C049
:103DD0000E94C50C9093E7038093E603FE01E15037
:103DE000F047E232F10520F4EC5EF44D0C943A2AEF
:103DF0008091E60381608093E60393C08091E7039E
:103E000088608093E7038DC08091E6038260F3CFE2
:103E10008091E6038460EFCF8091E6038860EBCF6A
:103E20008091E7038160EDCF8091E7038260E9CF65
:103E30008091E6038061DFCF8091E6038062DBCF73
:103E40008091E6038064D7CF0E9443078091E60308
:103E50008068D1CF8091E6038C60CDCF8091E7035D
:103E60008360CFCF8091E6038E7FC5CF8091E7033B
:103E7000877FC7CF8091E6038D7FBDCF8091E6031A
:103E80008B7FB9CF8091E603877FB5CF8091E70321
:103E90008E7FB7CF8091E7038D7FB3CF8091E6030C
:103EA0008F7EA9CF8091E6038F7DA5CF8091E60319
:103EB0008F7BA1CF0E9443078091E6038F779BCF32
:103EC0008091E603837F97CF8091E7038C7F99CF22
:103ED0008091E60382FB992790F921E0922790FBDD
:103EE00082F990FB83F987CF8091E703982F909513
:103EF00091708E7F892B90FB81F983CF9091E6039F
:103F0000892F8F7B96FF806476CF0E944307909124
:103F1000E603892F97FB87F980586DCF81E00E94D7
:103F2000530D8091E6039091E7030E94CA0C0E9412
:103F3000430780E0DF91CF91089580E0F0CF90912A
:103F4000E603892F8F7E94FF806155CF9091E60321
:103F5000892F8E7F90FF81604ECF9091E703892F4C
:103F6000877F93FF88604DCF81E0E4CF0F931F934D
:103F7000CF93DF93C42FD22FFC0185818823C9F012
:103F80004093D3030E94DD219093D2038093D10309
:103F900080E28C0F883040F4C77081E001C0880F48
:103FA000CA95EAF70E94DA04DF91CF911F910F9131
:103FB00008951091D30314133CC08091D1039091C4
:103FC000D2030E940622883C910598F5C0E2CD0FED
:103FD0001D1741F180E2810F883040F4177081E0B5
:103FE00001C0880F1A95EAF70E94E104C83020F05A
:103FF000802F0E94D104D8CF91E08D2F877001C00F
:10400000990F8A95EAF7892F0E94DA04802F0E947F
:10401000D104D77081E001C0880FDA95EAF70E94D9
:10402000E104C2CF802F0E94D104C83008F0BCCF79
:10403000F0CF80E28C0F883008F0B6CFC77081E0F7
:1040400001C0880FCA95EAF7EACF0F93FC01CB01B4
:10405000E851FC47E730F10590F5EA5CF44D0C942B
:104060003A2A06E221EE41EE6AE17CE70E94B61FA1
:1040700080E00F91089507E225EE45EE6BE17CE7C5
:10408000F5CF06E221EE40EE68E17CE7EFCF07E2F4
:1040900025EE44EE69E17CE7E9CF06E221EE42EE4F
:1040A0006CE17CE7E3CF07E225EE46EE6DE17CE7CD
:1040B000DDCF08E221E045EE6EE17CE7D7CFFB01E2
:1040C000858181111092D30381E0D3CF9093D903DE
:1040D0008093D8030895E091D803F091D9033097E5
:1040E00029F00190F081E02D0995089580E0089570
:1040F000E091D803F091D903309721F00280F38149
:10410000E02D09950895A3E0B0E0E9E8F0E20C9411
:10411000502A9C018091D6039091D7038217930770
:10412000A1F03093D7032093D603E091D803F09108
:10413000D903309751F083E089833B832A8300843D
:10414000F185E02DCE01019609952396E2E00C94CD
:104150006C2AA3E0B0E0EFEAF0E20C94502A9C0154
:104160008091D4039091D50382179307A1F03093E7
:10417000D5032093D403E091D803F091D90330976D
:1041800051F084E089833B832A830084F185E02D0C
:10419000CE01019609952396E2E00C946C2A409199
:1041A000FC015091FD019A012E5F3F4F485F5F4F28
:1041B00080E0F90190812F5F3F4F91118F5F42178F
:1041C0005307B9F70895882371F02091FC013091CD
:1041D000FD01F9013296285F3F4F9191981729F020
:1041E000E217F307D1F780E0089581E008959C017C
:1041F000FC0132968FEF90E04191461751F08F3FCE
:1042000019F4411101C0892F9F5F9630A9F78F3FA4
:1042100009F40895280F311D87FD3A95F90162834D
:1042200008959C01FC013296285F3F4F81918613CF
:1042300003C0DF0111971C92E217F307B9F7089545
:10424000682F8091FC019091FD010E94F720089554
:10425000682F8091FC019091FD010E941121089529
:10426000E091FC01F091FD01329686E0DF011D92A4
:104270008A95E9F7089508950E943B2108958F5F7C
:104280008093DA030E943C21089583E08093DA034F
:104290000E943C2108950E943F21089581E080936F
:1042A000DA030E943C2108950E944E21089508954A
:1042B00008950E9458210895089508950E94572155
:1042C0000895CF930E945C210E946F110E945D218E
:1042D000C0E08C2F0E949810892B31F4CF5FC5303D
:1042E000C1F780E0CF91089581E0FCCF85B7806869
:1042F00085BF85B7806885BF08951F921FB61F923E
:1043000011248F939F93AF93BF938091DB0381110F
:1043100013C08091650590916605A0916705B091E5
:1043200068054196A11DB11D8093650590936605B2
:10433000A0936705B0936805BF91AF919F918F914E
:104340001F901FBE1F90189580916D05843031F12C
:104350000E94C6031092DB0388E190E020E40FB6D0
:10436000F894A895809360000FBE2093600083B7F7
:10437000817F846083BF83B7816083BF7894889591
:1043800083B78E7F83BF0FB6F894A89580916000A5
:10439000886180936000109260000FBE08950E94B3
:1043A00043070E94D003089582E084BD93E095BD49
:1043B0009AEF97BD80936E0008952FB7F89480917F
:1043C000650590916605A0916705B09168052FBFBE
:1043D0000895A4E0B0E0EFEEF1E20C94502A8FB71C
:1043E000F8942091650530916605409167055091DC
:1043F000680529833A834B835C838FBF69817A8107
:104400008B819C812496E2E00C946C2A9C014FB72E
:10441000F8948091650590916605A0916705B0912B
:1044200068054FBF821B930B0895A4E0B0E0EBE159
:10443000F2E20C944E2A462F572FBC012FB7F89466
:104440008091650590916605A0916705B09168051A
:104450002FBF8C019D01041B150B260B370BC901C7
:10446000B8012496E4E00C946A2A78941F921FB64F
:104470001F9211248F939F93AF93BF9380916505F3
:1044800090916605A0916705B09168050196A11D00
:10449000B11D8093650590936605A0936705B09361
:1044A0006805BF91AF919F918F911F901FBE1F9084
:1044B000189581E08093E00080E28093D80010920C
:1044C000C9008FE19EE40197F1F700C0000087E08A
:1044D00090EBDC018093760590937705A0937805A7
:1044E000B093790588E19CE00FB6F894A895809385
:1044F00060000FBE90936000FFCF88E19CE00FB694
:10450000F894A895809360000FBE90936000FFCF51
:104510001092B9008CE08093B8000895A0E0B0E05C
:10452000E4E9F2E20C94472AB82EEB010E94DD2167
:104530006C01EE24E394F12CC431D10560F025E048
:10454000E22EF12CCF3FDC0731F0CE0164E170E0C8
:104550000E94D1297B0184EAA82E94E8992E10921A
:10456000BC00A092BC000E94DD21182F092F809171
:10457000BC0087FF0CC08091B900887F8830F9F0BB
:104580008091B900887F8031D1F00FEF08C0812F72
:10459000902F0E940622E816F90648F70EEF1FEF4B
:1045A000CF3FDC07E1F2C6010E940622C817D907F7
:1045B000B0F6C801CDB7DEB7EBE00C94632AB09239
:1045C000BB009092BC000E94DD21182F092F809122
:1045D000BC0087FF0AC02091B900287F283111F064
:1045E000203499F600E010E0E4CF812F902F0E9454
:1045F0000622E816F90658F7D1CF0F931F93CF93F1
:10460000DF93EB018093BB0084E88093BC000E94A1
:10461000DD21182F092F8091BC0087FF11C0209148
:10462000B900287F81E090E0283211F480E090E02A
:10463000919581959109DF91CF911F910F910895E7
:10464000CF3FDC0741F3812F902F0E940622C8172D
:10465000D90708F78EEF9FEFEECFA0E0B0E0E3E3DD
:10466000F3E20C944A2A6B018A01F22EE32E622FA8
:10467000732F0E948E22AC01E6010C0D1D1DC01788
:10468000D10711F057FF09C084E98093BC00CA012B
:10469000CDB7DEB7E8E00C94662A6F2D7E2D8991A8
:1046A0000E94FD22AC01EBCF8091E40308950895B0
:1046B0000895282FCB01BA0130916D053430E1F413
:1046C0002F702093E9002FEF3091E80035FD07C0EF
:1046D00035ED3A95F1F7000021502111F5CF2091E9
:1046E000E80025FF09C040E050E00E944F2580917E
:1046F000E8008E778093E8000895BC0143E050E025
:1047000082E00E9459230895CF93DF93D82FC92FB9
:1047100048E050E0682F792F81E00E94592388E01B
:10472000ED2FFC2FACEDB3E001900D928A95E1F7EF
:10473000DF91CF91089580916C05811109C00E948D
:10474000D7260E9434278091E20084608093E200A3
:10475000089510926C0508950E944E21089560916D
:10476000690581E0611101C080E00E944521089542
:1047700090916D0581E0943009F080E060916905C9
:104780000E944B21089542E061EC81E00E94532693
:1047900042E261EC82E00E94532690916D0581E037
:1047A000943009F080E0609169050E943F210895EE
:1047B00080916F05893089F148F4823009F4A0C0F6
:1047C000833009F45AC0813041F008958A3009F4E9
:1047D00087C08B3009F46CC0089580916E05813AD2
:1047E00009F04AC08091E800877F8093E8008091BB
:1047F000720590917305892B61F060E080E090E094
:1048000070E00E949E258091E8008B778093E800FD
:10481000089568E08CED93E0F3CF80916E058132CE
:1048200059F58091720590917305029728F5809152
:10483000E800877F8093E8008091E80082FF18C03D
:104840009091F3008091F200029731F48091F10091
:10485000813011F0863021F48091F1008093E403DF
:104860008091E8008B778093E8000E94872604C03F
:1048700080916D058111E0CF089580916E05813A98
:10488000D9F78091720590917305892BA9F78091D2
:10489000E800877F8093E8008091E80080FFFCCFEC
:1048A00080910E028093F1008091E8008E77DBCF3B
:1048B00080916E05813201F78091720590917305A8
:1048C000892BD1F68091E800877F8093E8000E94D1
:1048D00087268091700580930E020E9443070895F9
:1048E00080916E05813241F68091E800877F809348
:1048F000E8000E948726809171058093E503089562
:1049000080916E05813A09F0B7CF8091E800877FEA
:104910008093E8008091E80080FFFCCF8091E50360
:10492000C1CF84B7877F84BF0FB6F894A8958091D4
:104930006000886180936000109260000FBE80E884
:1049400090E00FB6F89480936100909361000FBEE1
:104950000E94542108950E94D7260E943427E2EE37
:10496000F0E080818460808378940E94B729089564
:1049700084E092E00E946620089580916D05853064
:1049800031F480916D05853019F00E94CF21089592
:104990000E94A42180916B05882399F30E946121D4
:1049A000882379F30E9439250E944307EACF0895AE
:1049B0009A0140917405509175050E94E024089574
:1049C000AC01CB01D901252F332723303105E1F08C
:1049D00058F421303105C9F122303105D9F180E098
:1049E00090E020E030E01EC02132310521F122327A
:1049F0003105A9F7892BC1F16130710581F782E397
:104A000090E025E934E00EC0CA019927413069F0F1
:104A10008230910569F0E4E4F4E0892B01F7849198
:104A200090E09F012D933C930895EEE1F4E0F7CFE1
:104A3000E4E1F4E0F4CF892B91F06130710579F66F
:104A400089E090E023E734E0EDCF82E190E023E8D5
:104A500034E0E8CF8BE390E028E434E0E3CF89E072
:104A600090E02AE534E0DECF84E490E027EC34E007
:104A7000D9CF80E189BD82E189BD09B400FEFDCFB7
:104A80008091D8008F7D8093D8008091E000826073
:104A90008093E0008091E00081FDFCCF0895AF920B
:104AA000BF92CF92DF92FF920F931F93CF93DF932A
:104AB0006C01EB018A010E94A626F82E811123C009
:104AC0000115110539F0F80180819181C81BD90BBE
:104AD000C80ED91EA12CB12C2097A9F08091E80016
:104AE00085FD22C08091E8008E778093E800011553
:104AF0001105A1F0F801808191818A0D9B1D9183A0
:104B0000808385E0F82E8F2DDF91CF911F910F913B
:104B1000FF90DF90CF90BF90AF9008950E94A6269F
:104B20008823E1F2F82EEFCFF60181916F01809397
:104B3000F1002197FFEFAF1ABF0ACECFFC019B0116
:104B400080917405909175058617970718F0672B6B
:104B500061F0C90140E0009771F441110CC08091EF
:104B6000E80082FF35C080E008958091E8008E77EC
:104B70008093E800EECF20916D052223A9F1253026
:104B8000A9F12091E80023FD2DC02091E80022FD2D
:104B9000E6CF2091E80020FFDECF3091F300209196
:104BA000F200009719F02830310558F041E0283024
:104BB000310509F040E02091E8002E772093E800CD
:104BC000CACF41914093F10001972F5F3F4FE9CF4A
:104BD00080916D05882341F0853041F08091E80097
:104BE00083FFBDCF81E0089582E0089583E00895BA
:104BF000FC019B01809174059091750586179707BC
:104C000018F0672B61F0C90140E0009771F4411181
:104C10000CC08091E80082FF36C080E0089580914A
:104C2000E8008E778093E800EECF20916D05222377
:104C3000B1F12530B1F12091E80023FD2EC0209183
:104C4000E80022FDE6CF2091E80020FFDECF309182
:104C5000F3002091F200009719F02830310558F048
:104C600041E02830310509F040E02091E8002E773E
:104C70002093E800CACF44914093F1003196019708
:104C80002F5F3F4FE8CF80916D05882341F085303D
:104C900041F08091E80083FFBCCF81E0089582E07D
:104CA000089583E00895982F973028F08F708093AF
:104CB000E90081E008959093E900242F762F50E0D9
:104CC000981731F07091EC002091ED005091F000B8
:104CD00021FD02C09F5FE8CF3091EB003E7F309313
:104CE000EB003091ED003D7F3093ED003091EB0013
:104CF00031603093EB007093EC002093ED00509303
:104D0000F0002091EE0027FDE5CF80E0089580912E
:104D10006E0587FF13C08091E80082FF06C0809176
:104D2000E8008B778093E80004C080916D058111C5
:104D3000F2CF089580916D058823D9F38091E80022
:104D400080FFF8CF8091E8008E77ECCF2091E400CF
:104D50003091E50095E6A9018091EC0081708823EF
:104D600031F08091E80080FF06C080E00895209136
:104D7000E80022FD1BC080916D05882391F08530ED
:104D800091F08091EB0085FD10C02091E4003091FE
:104D9000E5004217530701F391509111DCCF84E0F5
:104DA000089582E0089583E0089581E008950E94C7
:104DB00046270E944E27E0EEF0E0808181608083EC
:104DC000E8EDF0E080818F77808319BCA7EDB0E03B
:104DD0008C918E7F8C9380818F7E808310926C0566
:104DE00008950F931F93CF93DF930E9446270E944D
:104DF0004E27C8EDD0E088818F77888388818068CE
:104E0000888388818F7D888319BC10926D051092EC
:104E1000690510926B0510926A0500EE10E0F8012A
:104E200080818B7F808388818160888342E060E01D
:104E300080E00E945326E1EEF0E080818E7F808347
:104E4000E2EEF0E0808181608083808188608083F1
:104E5000F80180818E7F8083888180618883DF91E3
:104E6000CF911F910F910895E8EDF0E080818F7E42
:104E70008083E7EDF0E080818160808384E082BF01
:104E800081E080936C050E94F1260895E8EDF0E042
:104E900080818E7F80831092E20008951092DA0064
:104EA0001092E10008951F920F920FB60F921124F5
:104EB0002F933F934F935F936F937F938F939F9322
:104EC000AF93BF93EF93FF938091E10082FF0BC0FC
:104ED0008091E20082FF07C08091E1008B7F809388
:104EE000E1000E94B6298091DA0080FF19C080910C
:104EF000D80080FF15C08091DA008E7F8093DA00A1
:104F00008091D90080FF94C080E189BD82E189BD94
:104F100009B400FEFDCF81E080936D050E949B23C4
:104F20008091E10080FF19C08091E20080FF15C0F0
:104F30008091E2008E7F8093E2008091E2008061A8
:104F40008093E2008091D80080628093D80019BCE1
:104F500085E080936D050E94AF238091E10084FF7E
:104F600029C08091E20084FF25C080E189BD82E1F3
:104F700089BD09B400FEFDCF8091D8008F7D80935C
:104F8000D8008091E1008F7E8093E1008091E20063
:104F90008F7E8093E2008091E20081608093E20046
:104FA00080916905882309F449C084E080936D05E8
:104FB0000E94B8238091E10083FF29C08091E20024
:104FC00083FF25C08091E100877F8093E10082E02C
:104FD00080936D05109269058091E1008E7F80932A
:104FE000E1008091E2008E7F8093E2008091E200F8
:104FF00080618093E20042E060E080E00E945326FE
:105000008091F00088608093F0000E94AC23FF91B3
:10501000EF91BF91AF919F918F917F916F915F9130
:105020004F913F912F910F900FBE0F901F901895A9
:1050300019BC10926D050E94A92372CF8091E300E4
:1050400087FF02C083E0B2CF81E0B0CF1F920F9202
:105050000FB60F921124FF920F931F932F933F933C
:105060004F935F936F937F938F939F93AF93BF9370
:10507000CF93DF93EF93FF9309EE10E0F801808167
:10508000C091EC00C795CC27C7958F70FC2EF82AED
:105090001082C0EFD0E08881877F888378940E9457
:1050A0006F28F8011082888188608883CF2DCF70A7
:1050B000C083FF91EF91DF91CF91BF91AF919F910D
:1050C0008F917F916F915F914F913F912F911F91A0
:1050D0000F91FF900F900FBE0F901F901895AAE2AE
:1050E000B0E0E5E7F8E20C944F2A8EE695E0FC018B
:1050F00001962091F100208325E086379207B9F7C9
:105100000E94D8238091E80083FF38C080916E050B
:1051100090916F059A3090F5E92FF0E0E35CF44D43
:105120000C943A2A803889F0823841F580917205D2
:105130008F70873018F58093E9008091EB0085FB34
:10514000882780F91092E90006C080916A05909145
:105150006B05911182609091E800977F9093E80031
:105160008093F1001092F1008091E8008E7723C0C7
:10517000811116C080917005813011F18091E80095
:1051800083FF0AC08091E800877F8093E8008091C8
:10519000EB0080628093EB00AA96E3E00C946B2A0C
:1051A000823061F780917005882389F01092E900C0
:1051B0008091E800877F8093E8000E948726DECFF9
:1051C00081E0933009F080E080936B05EFCF809110
:1051D00072058F702FEF280F263080F68093E9003C
:1051E0002091EB0020FFE2CF933031F48091EB006F
:1051F00080628093EB00DACF9091EB009061909306
:10520000EB0021E030E0A90102C0440F551F8A9550
:10521000E2F74093EA001092EA008091EB00886088
:10522000E8CF8111ABCF109170051F778091E3001B
:105230008078812B8093E3008091E800877F8093C2
:10524000E8000E9487268091E80080FFFCCF8091D3
:10525000E30080688093E30083E0111101C082E0E5
:1052600080936D058BCF8058823008F087CF809176
:105270007005909171058C3D53E0950799F583E099
:105280008A838AE289834FB7F894DE01139620E07F
:105290003EE051E2E32FF0E050935700849120FF6D
:1052A00003C082958F703F5F8F708A30C8F0895C31
:1052B00090E08D939D932F5F243161F74FBF8091D4
:1052C000E800877F8093E8006AE270E0CE010196F3
:1052D0000E949E258091E8008B778093E8004ECF56
:1052E000805DE6CF6091720570917305AE014F5FEE
:1052F0005F4F0E94D824BC01892B09F43FCF8091D5
:10530000E800877F8093E80089819A810E94F825D0
:10531000E1CF803809F032CF8091E800877F809319
:10532000E800809169058093F1001ECF811126CF9E
:1053300090917005923008F021CF8091E800877F2E
:105340008093E800909369050E9487268091690503
:10535000882331F084E080936D050E94C3230ECF33
:105360008091E30087FDF6CF81E0F5CF0895CF93DC
:1053700080916D05882399F08091E900C091EC003F
:10538000C795CC27C7958F70C82B1092E9008091E4
:10539000E80083FD0E946F28CF70C093E900CF9191
:1053A0000895AA1BBB1B51E107C0AA1FBB1FA6176C
:1053B000B70710F0A61BB70B881F991F5A95A9F7BE
:1053C00080959095BC01CD01089597FB072E16F4AA
:1053D000009407D077FD09D00E94D12907FC05D0A1
:1053E0003EF4909581959F4F0895709561957F4FFC
:1053F0000895A1E21A2EAA1BBB1BFD010DC0AA1F16
:10540000BB1FEE1FFF1FA217B307E407F50720F02D
:10541000A21BB30BE40BF50B661F771F881F991FA8
:105420001A9469F760957095809590959B01AC01F1
:10543000BD01CF010895052E97FB1EF400940E9434
:10544000322A57FD07D00E94F92907FC03D04EF4F9
:105450000C94322A50954095309521953F4F4F4FEF
:105460005F4F089590958095709561957F4F8F4F10
:105470009F4F0895EE0FFF1F0590F491E02D0994C2
:105480002F923F924F925F926F927F928F929F9254
:10549000AF92BF92CF92DF92EF92FF920F931F9342
:1054A000CF93DF93CDB7DEB7CA1BDB0B0FB6F894F3
:1054B000DEBF0FBECDBF09942A88398848885F8433
:1054C0006E847D848C849B84AA84B984C884DF80A4
:1054D000EE80FD800C811B81AA81B981CE0FD11D88
:1054E0000FB6F894DEBF0FBECDBFED010895FB01EE
:1054F000DC0102C005900D9241505040D8F708954C
:10550000FB01DC0104C08D910190801921F4415010
:105510005040C8F7881B990B0895FB01DC0102C0BD
:1055200001900D9241505040D8F70895DC0101C020
:105530006D9341505040E0F70895DC01CB01FC0130
:10554000F999FECF06C0F2BDE1BDF89A319600B4DC
:105550000D9241505040B8F70895F999FECF92BD91
:1055600081BDF89A992780B50895A8E1B0E042E09E
:1055700050E00C949F2ADC01A40FB51F415050400D
:1055800048F0CB01840F951F2E910E94CC2A4150E8
:105590005040D0F70895262FF999FECF92BD81BDD6
:1055A000F89A019700B4021639F01FBA20BD0FB661
:1055B000F894FA9AF99A0FBE08950396272F0E943D
:1055C000CC2A0E94CB2A252F0E94CC2A242F0C946F
:1055D000CC2A0196272F0E94CC2A0C94CB2AF8942F
:1055E000FFCF8F19A819BC19C119C619CB19D01929
:1055F000D519DA19DF19E419E919EE19F3196A1E38
:10560000711E781E7D1E821E871E8C1E911E961E88
:105610009B1EA01EA51EA91EAB1E6C1E6C1E6C1E22
:105620006C1E6C1E6C1E6C1E321FA61F3A1F041FC0
:10563000081F3E1F0C1F421F4E1F181F9F1F1C1FBD
:10564000521F201F561F7E1F241F5A1F851F2A1FEF
:10565000601F681F101F461F141F4A1F2E1F641F44
:10566000741F8E1F9D1FFE1E361FAD1F4120472039
:1056700031203B204D20532059209228B828BE28A5
:0E568000B828BE2811293329BE288929962969
:10568E0000050A0F141A1F252B30353A01060B1090
:10569E00151B20262C31363B02070C11161C212718
:1056AE002D32373C03080D12171D22282E33383D9C
:1056BE0004090E1319FFFF2A2F34393E0000001083
:1056CE000020003000401500151015201530154033
:1056DE00290029102920293029403D003D103D2068
:1056EE003D303D40520052105220523052405C40EC
:1056FE00660066106620663066407A007A107A2060
:10570E007A307A4070408E008E108E208E308E4011
:10571E008440A300A310A320A330A340B700B7106A
:10572E00B720B730B740CB00CB10CB20CB30CB401F
:10573E00E000E010E020E030E0400000040404044B
:10574E00040404040404040404040404040404040B
:10575E0004040404040404040404040404040404FB
:10576E0004040404040404040404040404040404EB
:10577E0004040404040404040404040018030300D1
:10578E00FF00FFFF54238423582357237D2301005A
:10579E00FFFFE200E900EA00B500B600B700CD0059
:1057AE008301CC008A01920194012102230224027A
:1057BE002502260227022A02B300B4006F007000F1
:1057CE009F01CB019F02A002E200E900EA00B500B2
:1057DE00B600B700CD008301CC008A01920194017E
:1057EE002102230224022502260227022A02B300E6
:1057FE00B4006F0070009F01CB019F02A0023566BE
:10580E0067F7F6959392F1F437F536349796940040
:10581E003131295A1B750A271EA01CFD1C441E007F
:00000001FF
